:1000000018790020D1A10100C9A20100C9A20100F4
:1000100000000000000000000000000000000000E0
:10002000000000000000000000000000FD92000041
:10003000000000000000000021940000699400000E
:10004000C9A20100C9A20100C9A2010021630100E7
:100050004D580100C9A20100B9100000C9A2010059
:10006000FD110000C5690100DD690100F5690100AD
:100070000D6A0100256A01003D6A010019A1010015
:100080002DA1010041A10100E96F0000FD6F0000FA
:10009000117000000000000000000000410F00008F
:1000A000C9A201007D100000C9A20100C9A201007F
:1000B0000000000010B5064C2378002B07D1054B3B
:1000C000002B02D0044800E000BF0123237010BDC4
:1000D000000300200000000064A20200084B10B5DD
:1000E000002B03D00749084800E000BF0748036819
:1000F000002B00D110BD064B002BFBD09847F9E731
:10010000000000000403002064A2020064A20200B8
:100110000000000080B500AFC046BD4680BD80B580
:1001200000AFC046BD4680BD80B500AF254B9847A7
:10013000254B9847AE20254B9847D520234B984711
:100140008020224B9847A820204B98472F201F4BF8
:100150009847D3201D4B984700201C4B98474020C0
:100160001A4B98478D20194B98471420174B9847E6
:10017000A620164B9847A420144B9847A120134B58
:100180009847C820114B9847DA20104B9847122007
:100190000E4B984781200D4B98478F200B4B98476B
:1001A000D9200A4B9847F120084B9847DB20074B92
:1001B00098474020054B9847AF20044B9847C046CE
:1001C000BD4680BD1F01000015010000D1010000E7
:1001D00080B584B000AF0200FB1D1A700C23FB1821
:1001E00000221A700C23FB18FA1D12785A700C4B5F
:1001F0003D221A700A4B0C22BA185A60084B022290
:10020000DA81074B00229A60054B00229A81044B49
:1002100064211800034B9847C046BD4604B080BD1A
:10022000A4430020B530000080B584B000AF0200C8
:10023000FB1D1A700C23FB1840221A700C23FB18AC
:10024000FA1D12785A700C4B3D221A700A4B0C2280
:10025000BA185A60084B0222DA81074B00229A60D2
:10026000054B00229A81044B64211800034B9847E8
:10027000C046BD4604B080BDA4430020B530000098
:1002800080B582B000AF7860034B7A681A60C046D0
:10029000BD4602B080BDC0461C03002090B583B0AF
:1002A00000AF040008001100FB1D221C1A70BB1DCA
:1002B000021C1A707B1D0A1C1A700A4B1968FB1D60
:1002C0001A7813001B019B189B001A00BB1D1B789A
:1002D000D318CB187A1D12781A70C046BD4603B0E9
:1002E00090BDC0461C03002080B582B000AF020064
:1002F000FB1D1A70BB1D0A1C1A70094B1968FB1DE7
:100300001A7813001B019B189B001A00BB1D1B7859
:10031000D318CB181B781800BD4602B080BDC0466C
:100320001C030020B0B584B000AF05000C00100025
:100330001900FB1D2A1C1A70BB1D221C1A707B1D84
:10034000021C1A703B1D0A1C1A707B1D1B78002BA7
:1003500000D1A7E0BA1D7B1D12781B78D318DAB242
:100360000F23FB18013A1A70BA1D0F23FB181278DD
:100370001B789A4209D13B1D1A78BB1D1978FB1DC9
:100380001B781800494B98478DE00F23FB181B780A
:100390002E2B03D90F23FB182F221A700E23FB18C4
:1003A000BA1D1278D2081A700D23FB180F22BA1842
:1003B0001278D2081A700C23FB18BA1D1278072184
:1003C0000A401A700B23FB180F22BA181278072163
:1003D0000A401A700C23FB181B78FF229A400A234C
:1003E000FB181A700B23FB181B780722D31AFF2265
:1003F0001A410923FB181A700E23FA180D23FB1853
:1004000012781B789A4217D10823FB180A22BA18CF
:1004100009217918127809780A401A703B1D1C7856
:100420000823FB181A78FB1D19780E23FB1818787F
:1004300023001F4CA04736E03B1D1C780A23FB1805
:100440001A78FB1D19780E23FB1818782300184C16
:10045000A0470AE03B1D1A78FB1D19780E23FB18F4
:1004600018781300FF22124CA0470E23FB180E220F
:10047000BA18127801321A700E23FA180D23FB18DD
:1004800012781B789A42E5D33B1D1C780923FB1890
:100490001A78FB1D19780D23FB1818782300044CDB
:1004A000A04700E0C046BD4604B0B0BDED0A000064
:1004B000B10C0000B0B584B000AF05000C00100016
:1004C0001900FB1D2A1C1A70BB1D221C1A707B1DF3
:1004D000021C1A703B1D0A1C1A70FA1D7B1D127833
:1004E0001B789A421BD90A23FB18FA1D12781A703E
:1004F000FB1D7A1D12781A707B1D0A22BA18127819
:100500001A700923FB18BA1D12781A70BB1D3A1D08
:1005100012781A703B1D0922BA1812781A707A1DC7
:10052000FB1D12781B78D31ADAB20A23FB181A7053
:100530003A1DBB1D12781B78D31ADAB20923FB18B7
:100540001A700E23FB18FA1D12781A700D23FB186F
:10055000BA1D12781A700A23FB181B787F2B0CD94E
:100560000C23FB18FF221A700A23FB181B785B422E
:10057000DAB20A23FB181A7003E00C23FB180122DD
:100580001A700923FB181B787F2B0CD90B23FB183F
:10059000FF221A700923FB181B785B42DAB2092389
:1005A000FB181A7003E00B23FB1801221A700A23B0
:1005B000FA180923FB18127852B21B785BB29A42E0
:1005C0005BDD0923FB181A780A23FB181B78D31A62
:1005D000DAB20823FB181A700F23FB1800221A70D6
:1005E00041E02023FB181A780D23FB1819780E23FD
:1005F000FB181B781800504B98470823FB181B78F2
:100600007F2B14D80823FB181A780A23FB181B78B1
:10061000D31ADAB20823FB181A700B23FB181978C7
:100620000D23FB180D22BA1812788A181A700823A5
:10063000FB181A780923FB181B78D318DAB20823A1
:10064000FB181A700C23FB1819780E23FB180E22C6
:10065000BA1812788A181A700F23FB181A780F2309
:10066000FB1801321A700F23FB181A780A23FB18A3
:100670001B785BB29A42B4DD5AE00A23FB181A7861
:100680000923FB181B78D31ADAB20823FB181A7057
:100690000F23FB1800221A7041E02023FB181A7860
:1006A0000D23FB1819780E23FB181B781800224B1A
:1006B00098470823FB181B787F2B14D80823FB18B6
:1006C0001A780923FB181B78D31ADAB20823FB180F
:1006D0001A700C23FB1819780E23FB180E22BA1877
:1006E00012788A181A700823FB181A780A23FB1844
:1006F0001B78D318DAB20823FB181A700B23FB18E7
:1007000019780D23FB180D22BA1812788A181A705E
:100710000F23FB181A780F23FB1801321A700F23CE
:10072000FB181A780923FB181B785BB29A42B4DDD8
:10073000C046BD4604B0B0BDED0A0000B0B584B0FF
:1007400000AF05000C0010001900FB1D2A1C1A70D8
:10075000BB1D221C1A707B1D021C1A703B1D0A1C3B
:100760001A707B1D1B78002B09D13B1D1A78BB1D0D
:100770001978FB1D1B7818008F4B984718E10F2341
:10078000FB1800221A700E23FB187A1D12781A70BB
:100790007B1D1B789BB2DB189BB20322D31A9AB243
:1007A0000C23FB181A80FAE02023FB181B78032285
:1007B00013402DD0FA1D0E23FB1812781B78D31886
:1007C000D8B2BA1D0F23FB1812781B78D31AD9B2EE
:1007D0000F23FB181B780133DAB23B1D1B78774CD3
:1007E000A047FA1D0F23FB1812781B78D318D8B234
:1007F000BA1D0E23FB1812781B78D31AD9B20E2318
:10080000FB181B780133DAB23B1D1B786B4CA047F9
:100810002023FB181B780C2213402DD0FA1D0E2329
:10082000FB1812781B78D31AD8B2BA1D0F23FB1805
:1008300012781B78D31AD9B20F23FB181B78013317
:10084000DAB23B1D1B785D4CA047FA1D0F23FB1845
:1008500012781B78D31AD8B2BA1D0E23FB1812785F
:100860001B78D31AD9B20E23FB181B780133DAB2E6
:100870003B1D1B78514CA0472023FB181B783022CE
:10088000134025D0FA1D0E23FB1812781B78D31ABB
:10089000D8B20F23FB181B780133DAB23B1D1C784A
:1008A000BB1D19782300454CA047FA1D0F23FB18E8
:1008B00012781B78D31AD8B20E23FB181B78013399
:1008C000DAB23B1D1C78BB1D197823003B4CA047B6
:1008D0002023FB181B78C022134025D0FA1D0E23BD
:1008E000FB1812781B78D318D8B20F23FB181B788B
:1008F0000133DAB23B1D1C78BB1D197823002F4C45
:10090000A047FA1D0F23FB1812781B78D318D8B212
:100910000E23FB181B780133DAB23B1D1C78BB1D7C
:1009200019782300254CA0470C23FB1800229B5E5E
:10093000002B10DA0F23FB181B789BB29B009AB296
:100940000C23FB181B88D3189BB206339AB20C23D6
:10095000FB181A801CE00F23FB181B789AB20E2399
:10096000FB181B789BB2D31A9BB29B009AB20C2344
:10097000FB181B88D3189BB20A339AB20C23FB18BE
:100980001A800E23FB180E22BA181278013A1A7038
:100990000F23FB180F22BA18127801321A700F2396
:1009A000FA180E23FB1812781B789A4200D8FBE63F
:1009B000BD4604B0B0BDC046ED0A000025030000EE
:1009C00080B582B000AF0200FB1D1A70FB1DFA1D3E
:1009D00012780F210A401A70FB1D1B7850225242D8
:1009E0001343DBB21800034B9847C046BD4602B024
:1009F00080BDC046D101000080B582B000AF0200CA
:100A0000FB1D1A70FB1DFA1D12787F210A401A7017
:100A1000FB1D1B781B09DBB210221343DBB218004D
:100A2000064B9847FB1D1B780F221340DBB21800C2
:100A3000024B9847C046BD4602B080BDD1010000C0
:100A400080B582B000AF0200FB1D1A70FB1DFA1DBD
:100A500012783F210A401A70FB1D1B784022134375
:100A6000DBB21800024B9847C046BD4602B080BDBD
:100A7000D101000090B583B000AF174B1800174BA1
:100A80009847174B98470020164B9847FB1D0022AC
:100A90001A7019E0BB1D00221A700CE0BB1D1978FA
:100AA000FB1D18780123FF220F4CA047BB1D1A78AD
:100AB000BB1D01321A70BB1D1B78432BEED9FB1DE9
:100AC0001A78FB1D01321A70FB1D1B78052BE1D92A
:100AD000C046BD4603B090BD200300208102000047
:100AE00029010000410A0000E10B000090B585B02B
:100AF00000AF040008001100FB1D221C1A70BB1D72
:100B0000021C1A707B1D0A1C1A70FB1D1B78432BDC
:100B10005DD8BB1D1B782F2B59D80E23FB18BA1D8F
:100B20001278D2081A70BB1D1A780E23FB181B7896
:100B3000DB00D31A01229A400D23FB181A700F23F1
:100B4000FC18FB1D1A780E23FB181B7811001800E7
:100B5000214B9847030023707B1D1B78012B04D089
:100B6000022B1DD0002B0BD025E00F23FB180F22EA
:100B7000B9180D22BA18097812780A431A701AE0C7
:100B80000D23FB181B785BB2DB435BB20F22BA1854
:100B9000127852B213405AB20F23FB181A700AE0AF
:100BA0000F23FB180F22B9180D22BA1809781278F2
:100BB0004A401A70C0460F23FB181A78FB1D19789B
:100BC0000E23FB1818780023044CA04700E0C04611
:100BD000BD4605B090BDC046810C0000E10B000091
:100BE000B0B582B000AF05000C0010001900FB1D6D
:100BF0002A1C1A70BB1D221C1A707B1D021C1A7045
:100C00003B1D0A1C1A703B1D1B7801225340DBB2AE
:100C1000002B0DD0BB1D1A78FB1D1B78110018008E
:100C2000124B984703001A007B1D1B78934218D083
:100C30007B1D1A78BB1D1978FB1D1B7818000C4B07
:100C40009847FB1D1B7818000A4B9847BB1D1B7863
:100C50001800094B98477B1D1B781800074B9847D5
:100C600000E0C046BD4602B0B0BDC046E90200008B
:100C70009D020000C1090000F909000029020000DE
:100C800080B582B000AF0200FB1D1A70BB1D0A1CAC
:100C90001A70BB1D1A78FB1D1B7811001800034B3E
:100CA000984703001800BD4602B080BDE90200006D
:100CB000B0B584B000AF05000C0010001900FB1D9A
:100CC0002A1C1A70BB1D221C1A707B1D021C1A7074
:100CD0003B1D0A1C1A700F23FC18BB1D1A78FB1D44
:100CE0001B78110018001F4B9847030023703B1D11
:100CF0001B78012B04D0022B1BD0002B0AD022E042
:100D00000F23FB180F22B9187A1D097812780A43AD
:100D10001A7018E07B1D1B785BB2DB435BB20F22BD
:100D2000BA18127852B213405AB20F23FB181A7035
:100D300009E00F23FB180F22B9187A1D09781278E1
:100D40004A401A70C0460F23FB181A78BB1D197849
:100D5000FB1D18780023044CA047C046BD4604B0D4
:100D6000B0BDC046810C0000E10B000080B584B02E
:100D700000AF78607B681B68FB60FB685B7EDBB262
:100D80005BB2002B01DA012300E000231800BD460E
:100D900004B080BD80B584B000AF78607B681B680C
:100DA000FB60C0467B6818000B4B9847031EF9D1C7
:100DB000FB681B7BDBB202221343DAB2FB681A73B7
:100DC000C0467B681800044B9847031EF9D1C04603
:100DD000BD4604B080BDC0466D0D000080B584B036
:100DE00000AF78600A00FB1C1A707B681B68FB6010
:100DF000FB68FA1C12789A75C046BD4604B080BDE7
:100E000080B584B000AF0200FB1D1A70FB1D1A787C
:100E1000474B9200D358FB60FB681B681B7EDAB21D
:100E2000FB681B68DB7DDBB21340DBB2BB60BB68D9
:100E30000122134045D0FB681B6801221A76C04688
:100E4000FB6818003B4B9847031EF9D1FB685B69B0
:100E5000991CFA685161FA681268528B92B21A8032
:100E6000FB681B8B9BB2013B9BB2FA68191C118378
:100E7000002B08D0FB685B7F002B22D0FB6818009A
:100E80002D4B98471DE0FB68012118002B4B98471C
:100E9000FB681B7FDBB2052B13D1FB6800221A779E
:100EA000FB68DB7E1A00012313400AD0FB689B7E9F
:100EB0001A000123134004D0FB689B68FA681000F5
:100EC0009847BB680422134014D0FB681B680422B7
:100ED0001A76FB68DB7E1A00022313400AD0FB68F7
:100EE0009B7E1A000223134004D0FB68DB68FA687B
:100EF00010009847BB680222134014D0FB681B689F
:100F000002221A76FB68DB7E1A00042313400AD003
:100F1000FB689B7E1A000423134004D0FB681B6906
:100F2000FA6810009847C046BD4604B080BDC04670
:100F3000B84300206D0D0000950D0000DD0D000090
:100F400080B500AF0020024B9847C046BD4680BD2B
:100F5000010E000080B582B000AF0200FB1D1A70C8
:100F6000074AFB1D1B7819001F230B4001219940E4
:100F70000B0019008023D150C046BD4602B080BD91
:100F800000E100E080B584B000AF0200FB1D1A70E4
:100F9000FB1D1A78374B9200D358FB60FB681B6827
:100FA000BB60BB689B79DBB21A00012313400ED0F3
:100FB000BB6801229A71FB681433002B07D0FB68D1
:100FC0005B7C002B03D0FB689B6900209847BB68C3
:100FD0009B79DBB21A000223134047D0BB68022280
:100FE0009A71FB689B899BB2002B33D0FB689A688F
:100FF000FB68DB899BB2591C88B2F968C8815B0029
:10100000D3181B889AB2BB689A81FB689B899BB2F4
:10101000013B9AB2FB689A81FB689B899BB2002BCB
:1010200018D1FB68202200219954BB6802221A7152
:10103000BB6802229A7119200F4B9847FB68143342
:10104000002B07D0FB689B7C002B03D0FB68DB697F
:1010500000209847FB681433002B07D0FB681B7CEB
:10106000002B03D0FB685B6900209847C046BD4653
:1010700004B080BDBC430020550F000080B500AF18
:101080000020024B9847C046BD4680BD850F00003A
:1010900080B500AF024B9847C046BD4680BDC046F4
:1010A000AD54010080B500AF024B9847C046BD4625
:1010B00080BDC0460155010080B586B000AF494BE8
:1010C0009847494B1B8C9BB2DAB21723FB180F21B0
:1010D0000A401A701723FB181A78444B9200D35811
:1010E0003B61414A3B691B780F210B40D9B23F233A
:1010F000D1543D490F23FB184E228A5C1A703B697C
:101100001B783B4A1B01D31802331B889BB2BB6080
:101110003B691B78374A1B01D31802331B889BB2EB
:101120007B60BA687B68D21A3B695A610F23FB184F
:101130001B780122134016D02B4A4E230121D15493
:101140003B6910225A743B691B7C1A00012313402F
:1011500042D03B695B68002B3ED03B695B683A69D3
:101160001000984738E00F23FB181B780222134029
:1011700016D01D4A4E230221D1543B6900225A74D5
:101180003B691B7C1A000223134025D03B699B68F6
:10119000002B21D03B699B683A69100098471BE0FF
:1011A0000F23FB181B780422134015D00E4A4E2340
:1011B0000421D1543B6906225A743B691B7C1A00F6
:1011C0000423134008D03B69DB68002B04D03B6943
:1011D000DB683A6910009847074B9847C046BD4600
:1011E00006B080BD911000000048004110050020AD
:1011F000C0430020C0040020A510000080B582B0CC
:1012000000AF154B1B697B60144B9B693B60124B15
:101210009A683B681A43104B9A60104B104A9A61C7
:1012200008E07B685A687B681B68180090477B68F9
:101230009B687B607B68002BF3D1074BDB683B60CE
:10124000054B9B683A68D2431A40034B9A60C046EC
:10125000BD4602B080BDC046000000200004004230
:10126000FFFF0F0F80B582B000AF02003960FB1D99
:101270001A70FB1D1B78012B0AD0022B0FD0002BFC
:1012800014D10E4B0D4A91693A680A439A610FE0F6
:101290000A4B0A4AD1693A680A43DA6108E0074B07
:1012A000064A116A3A680A431A6201E0172300E00D
:1012B00000231800BD4602B080BDC04600040040B7
:1012C00080B500AF02210220074B9847074B01224F
:1012D0001A70C046054B1B78DBB21A00012313407D
:1012E000F8D1C046BD4680BD651200000004004232
:1012F00080B584B000AF78607B681B68FB60FB68DA
:10130000DB69072213405A1E9341DBB21800BD4629
:1013100004B080BD80B582B000AF7860C0467B6805
:101320001800044B9847031EF9D1C046BD4602B0D1
:1013300080BDC046F112000080B584B000AF786077
:101340007B681B68FB60FB681B681B01DB0FDBB263
:101350001A000B23FB18511E8A411A700823FB1830
:101360007A68528B1A807B689B8B9AB20823FB1891
:101370000821791809888A1A1A807B689B8B9BB28E
:10138000013B9AB27B689A830B23FB181B78002BD6
:1013900010D07B68DB7A002B1CD07B689B8B9BB2C8
:1013A000012B17D1FB685B688022D2021A43FB68CD
:1013B0005A600FE07B68DB7A002B0BD07B689B8B3D
:1013C0009BB2002B06D1FB685B688022D2021A43D5
:1013D000FB685A607B689B8B9BB2002B0ED17B68AD
:1013E0009B7A002B0AD07B6818000E4B9847FB684D
:1013F0005B68C02292021A43FB685A607B6818003F
:10140000084B98477B681A6A0823FB181B88D31877
:10141000FA682821525CD2B21A70C046BD4604B0A8
:1014200080BDC0461513000080B584B000AF786061
:101430007B681B68FB60FB685B8B9BB21A00042314
:10144000134004D07B6825221E21995424E00A23EE
:10145000FB187A68528B1A807B689B8B9AB20A239E
:10146000FB180A21791809888A1A1A807B689B8BD5
:101470009BB2013B9AB27B689A837B681800084B49
:1014800098477B681A6A0A23FB181B88D3181B78B5
:10149000D9B2FB6828229954BD4604B080BDC0462D
:1014A0001513000080B584B000AF78607B681B68BE
:1014B000FB60FB681B7EDBB21A00012313402BD0BC
:1014C000FB6801221A76FB685B8B9BB21A00022331
:1014D000134004D07B682522412199541CE0FB680D
:1014E0005B8B9BB21A000423134015D07B68252226
:1014F000182199547B6800229A837B689B7A002B81
:101500000AD07B681800134B9847FB685B68C022C1
:1015100092021A43FB685A607B689B8B9AB27B6885
:101520005A837B6825229B5CDBB2052B0ED17B683E
:1015300024229B5CDBB2002B04D17B681800064B95
:10154000984703E07B681800044B9847C046BD46A7
:1015500004B080BD151300002914000039130000E9
:1015600080B584B000AFF860B960FB1D1A70FB1D38
:101570001B78FA6802339B00D3180433BA681A60E8
:10158000FB681B7EDBB25AB2FB1D1B780121994020
:101590000B005BB213435BB2DAB2FB681A76C0464B
:1015A000BD4604B080BD000090B587B000AF786044
:1015B00039607B681B683B613B685A687B681A62CC
:1015C0003B685A887B689A837B682422012199545E
:1015D0007B682522052199543B691B681B01DB0FA1
:1015E000DBB21A000F23FB18511E8A411A703B68A8
:1015F0005B7A002B06D03B689A7A7B681100180052
:101600003B4B98470F23FB181B78002B0BD03B68F4
:101610005B88012B07D13B695B688022D2021A43A9
:101620003B695A6005E03B695B68324A1A403B6996
:101630005A603B681B7A002B45D03B681B885A00D8
:101640003B685B7A9B0313431A0080231B021A43F7
:101650003B695A621723FC187B681800264B984791
:10166000030023703B695B68224A1A403B695A6059
:101670001723FB181B78002B07D11723FC187B6856
:1016800018001E4B9847030023701723FB181B7884
:10169000002B14D13B6903229A753B681B881B0AF7
:1016A0009BB2782213439BB25A003B685B7A9B0340
:1016B0001343012213431A003B695A6212E01723B5
:1016C000FB181B780FE03B6903229A753B681B8867
:1016D0005B0001221A433B685B7A9B0313431A00A9
:1016E0003B695A6200231800BD4607B090BDC04652
:1016F000956F0000FFFFFBFF376F0000D96E000001
:1017000080B582B000AF786039607B689B8B9BB2FC
:10171000002B01D005230CE07B6801229A727B68C4
:101720000122DA723A687B6811001800034B98476F
:1017300003001800BD4602B080BDC046A9150000D8
:1017400080B584B000AF786039607B681B68FB604F
:101750003B685B7A002B06D03B689A7A7B68110065
:1017600018001E4B9847FB685B681D4A1A40FB68CF
:101770005A603B685A687B681A623B685A887B6883
:101780009A837B682422002199547B6825220521B5
:101790009954FB6803229A753B681B7A002B0DD085
:1017A0003B681B885A003B685B7A9B0313431A0013
:1017B00080231B021A43FB685A6209E03B681B88BE
:1017C0005A003B685B7A9B0313431A00FB685A621A
:1017D00000231800BD4604B080BDC046956F0000D0
:1017E000FFFFFBFF80B582B000AF786039607B6897
:1017F0009B8B9BB2002B01D005230CE07B68012260
:101800009A727B680122DA723A687B6811001800CC
:10181000034B984703001800BD4602B080BDC04688
:101820004117000080B586B000AF0200FB1D1A70A2
:10183000FB1D1A78934B9200D3587B617B691B6820
:101840003B613B691B681B01DB0FDBB21A000F23F6
:10185000FB18511E8A411A700E23FB187A69527EBA
:101860001A707B691B7EDAB20E23FB180E217918E1
:1018700009780A401A707B695B8B9BB2002B09D1F7
:101880007B699B8B9BB2002B04D07B6918007E4B3D
:10189000984770E07B695B8B9BB2002B39D07B69EA
:1018A0009B8B9BB2002B34D17B6925229B5CDBB2E6
:1018B000052B2ED17B6924229B5CDBB2002B28D127
:1018C0003B6903221A757B6900225A837B692522B2
:1018D000002199547B699B7A002B0BD07B691800FF
:1018E0006A4B98473B695B68C02292021A433B6986
:1018F0005A6002E03B6901221A760E23FB181B781E
:101900000122134037D07B69DB687A691000984761
:1019100031E07B695B8B9BB2002B2CD07B699B8B6E
:101920009BB2002B27D03B695B8B9BB21A00202314
:10193000134011D10F23FB181B7801225340DBB257
:10194000002B04D17B699B8B9BB2012B04D07B695C
:101950002522412199540EE07B6924229B5CDBB255
:10196000002B04D17B691800494B984703E07B6941
:101970001800484B98477B695B8B9BB2002B47D084
:101980007B699B8B9BB2002B42D17B6925229B5CA0
:10199000DBB2052B3CD17B6924229B5CDBB2012BA3
:1019A00036D13B691B7EDBB21A000223134002D002
:1019B0003B6902221A763B6903221A757B69002271
:1019C0005A837B692522002199540E23FB181B782A
:1019D000022213400BD07B6924229B5CDBB2012BDB
:1019E00005D17B691B697A691000984710E00E23C6
:1019F000FB181B78012213400AD07B6924229B5CD0
:101A0000DBB2002B04D17B69DB687A691000984750
:101A10007B6925229B5CDBB2052B2ED07B692522BE
:101A20009B5CDBB2002B28D03B6903221A757B69D3
:101A300000225A837B6900229A837B6925229B5C62
:101A4000DBB2412B0ED07B699B7A002B0AD07B69DD
:101A500018000E4B98473B695B68E022D2021A439C
:101A60003B695A600E23FB181B780422134004D0F4
:101A70007B695B697A6910009847C046BD4606B02D
:101A800080BDC04688580020A51400001513000032
:101A9000291400003913000080B584B000AF0200A3
:101AA000FB1D1A700F23FB18FA1D1278D2091A7049
:101AB0000E23FB18FA1D127852091A700D4BBB60E9
:101AC0000F23FB181B78002B0FD10F23FB181B785B
:101AD0009B0010229446BC446344083B1A680E23C2
:101AE000FB181B78DB01D31800E000231800BD466B
:101AF00004B080BD0044004180B582B000AF020058
:101B0000FB1D1A70FB1D1B781800034B9847030040
:101B10001800BD4602B080BD991A000080B582B0A1
:101B200000AF78607B6800221A707B6801225A70CF
:101B30007B6800229A70C046BD4602B080BD00009E
:101B400080B584B000AF0200FB1D1A70BB1D0A1CDB
:101B50001A70FB1D1B7818000D4B98470300FB60A3
:101B6000FB1D1B781F22134001229A401300BB600B
:101B7000BB1D1B78002B03D0FB68BA689A6102E09A
:101B8000FB68BA685A61C046BD4604B080BDC04615
:101B9000F91A000080B586B000AF7860A04B18003D
:101BA000A04B9847A04B18009E4B98479F4B18009E
:101BB0009C4B98479E4B18009A4B98479D4B18009A
:101BC000984B98479C4B1800964B98479B4B180096
:101BD000944B98479A4B1800924B9847994B180092
:101BE000904B9847984B18008E4B98471723FB183B
:101BF00000221A70954B1800954B9847032200213C
:101C00000120944B98470200934B1A60924B1B683B
:101C1000002B07D1914B19000320914B98470020CE
:101C2000904B98470C23FB1818008F4B98470C23B8
:101C3000FB181B780A2B04D00C23FB181B780D2BE8
:101C400037D18A4B1800824B9847894B00221A7073
:101C5000884B00221A708849884B31221800884B23
:101C60009847864B3122002199548649824B642241
:101C70001800854B984703003B61824B632200218B
:101C80009954804B1800724B98473B69002BECD15C
:101C90001723FB1800221A70774B322200211800FC
:101CA0007A4B9847774B642200211800774B98476E
:101CB000B5E06F4B1B78002B59D06E4B1B78032B74
:101CC0000CD86C4B1B785A1CD1B26A4A11701A009E
:101CD0000C23FB1819786E4B995405E0644B0022D5
:101CE0001A70644B00221A70624B1B78012B99D931
:101CF000684A674B11001800674B9847031E2FD0A6
:101D000066495D4B1B221800654B98475A4B1800DB
:101D10004F4B98471723FB1800221A70564B32225C
:101D200000211800594B98475449534B3122180051
:101D3000534B9847504B18005A4B98470300302B91
:101D400006D84E4B1800574B98470300DAB200E014
:101D500031221723FB181A70474B18003C4B984749
:101D6000434B00221A70434B00221A705AE70C238F
:101D7000FB181B780D2B00D154E70C23FB181B78A4
:101D8000082B04D00C23FB181B787F2B1CD10823B5
:101D9000FB18454A12681A600823FB1818002C4BE0
:101DA00098471723FB181B78002B37D01723FB18F5
:101DB0001A781723FB18013A1A701723FB181B789F
:101DC0002D4A0021D15429E00C23FB181B781B2B32
:101DD00006D1274B01221A70264B00221A7021E7E8
:101DE0001723FB181B78312B0ED81723FB181B78F1
:101DF0000C22BA181178204AD1541723FB181A78EC
:101E00001723FB1801321A700C23FB1800225A709A
:101E10000C23FB1818000E4B984703E7C04601E758
:101E2000645F0200DD700000545F0200E45F0200A6
:101E3000745F0200845F0200945F0200A45F0200EE
:101E4000B45F0200C45F0200D45F0200945B020032
:101E500009D00000A996000010440020E05D0200B7
:101E6000F5D0000095B40000AD1E0000005E020039
:101E700034050020350500206C05002038050020C1
:101E80009F4B0200A00500204D710000B7470200E3
:101E900004060020045E0200B94A0200085E020047
:101EA000754A02006F4B0200105E020080B584B0DC
:101EB00000AF78607B6818000C4B98470300FB600C
:101EC0000DE00B4B1A6801235B4219001000094B0F
:101ED00098477B681800054B98470300FB60FB6838
:101EE0000133EED0C046BD4604B080BDA5D0000091
:101EF0001044002061A6000080B500AF0A4B00220C
:101F00001A600A4B1B68084A11001800084B9847D2
:101F1000054B1B68002B03D0064B802252051A602C
:101F2000C046BD4680BDC0460806002010440020C3
:101F3000D99F000004ED00E0B0B588B002AFF860B2
:101F4000B9607A602E4B984703007B611323FA181F
:101F50007B69110018002B4B98471323FB181B7843
:101F6000002B41D0284B062200211800274B984710
:101F7000254A7B6911001800254B9847224B002207
:101F80009B5E1800234B9847021C234B1A601E4B84
:101F900002229B5E18001F4B9847021C1E4B5A6082
:101FA000194B04229B5E18001A4B9847021C1A4BCF
:101FB0009A60194B1A68194B101C98470500164B6C
:101FC0005A68164B101C98470400134B9A68134B21
:101FD000101C98470300124AB968F86801930094EE
:101FE0002B00104CA04705E00F4AB968FB681800A9
:101FF0000C4B984700231800BD4606B0B0BDC04644
:10200000F53F0000A13A00000C060020B74702008F
:10201000DD3A00003133000014060020992B020045
:10202000145E0200114A0200385E020090B587B0CB
:1020300000AFF860B9607A601723FB181B221A7092
:102040001723FB181B78084A08480F21084CA047A3
:10205000064AB968FB681800054B9847002318002A
:10206000BD4607B090BDC0464C5E0200240500206E
:10207000114A020080B584B000AFF860B9607A60A0
:102080000220034B984700231800BD4604B080BDD2
:10209000ED66000080B584B000AFF860B9607A608A
:1020A00000231800BD4604B080BD000080B584B098
:1020B00000AFF860B9607A60054AB968FB6818003B
:1020C000044B984700231800BD4604B080BDC046AD
:1020D000545E0200114A020090B59BB000AFF86058
:1020E000B9607A605423FB181800444B9847542376
:1020F000FB1801221A705423FB1819000220404BD0
:102100009847002102203F4B98476723FC183E4B1D
:102110009847030023706723FB181B78002B61D0BE
:102120001423FB1801211800384B984703003B6625
:102130003B6E002B50D11423FB181A785F23FB1839
:1021400003210A401A701423FB181A785E23FB1827
:1021500092081A705E23FB181B78DB08DBB29A002A
:102160005E23FB181B7807210B40D318BB655F2348
:10217000FB181B78022B15D1BB6D002B00DA07333F
:10218000DB109A00BB6D22490B4004D5013B0821AE
:1021900049420B430133D3181E4AB968F8681E4CF4
:1021A000A04719E05F23FB181B78032B14D1BB6DEC
:1021B000002B00DA0733DB109A00BB6D14490B408B
:1021C00004D5013B082149420B430133D318134A7C
:1021D000B968F868104CA04701210220094B9847C4
:1021E000012306E00023FB6001210220054B9847F4
:1021F00000231800BD461BB090BDC0461D1B00004B
:10220000B15C0100411B00006D470000D547000094
:10221000070000806C5E0200114A0200885E020026
:1022200090B587B000AFF860B9607A601223FB18F0
:1022300000221A801223FB1864211800194B9847BA
:1022400003007B617B69002B06D07B69164AB96865
:10225000F868164CA04707E01223FB181B88144AA5
:10226000B968F868114CA0471223FB181800114BED
:10227000984703007B617B69012B0ED1FB68180036
:102280000D4B984703001A00FB689A180B4B10007F
:1022900019001A231A000A4B984700231800BD465C
:1022A00007B090BDBD280000A05E0200114A0200E8
:1022B000B45E0200216700006F4B0200C85E02009E
:1022C0008147020080B58AB000AFF860B9607A60DB
:1022D0001023FB1800221A701023FB1801225A70D9
:1022E0001023FB1802229A701023FB180322DA70C5
:1022F0001023FB1804221A711023FB1805225A71AF
:102300001023FB1806229A711023FB180722DA719A
:102310001023FB1808221A721023FB1809225A7284
:102320001023FB18FF229A721023FB181800094B88
:10233000984703007B627B6A012B05D1064AB96886
:10234000FB681800054B984700231800BD460AB0EB
:1023500080BDC0464D670000E45E0200114A0200E5
:1023600090B58FB000AFF860B9607A601823FB18A1
:1023700000221A701823FB1800225A701823FB1829
:1023800000221A701823FB1800225A701C23FB1815
:1023900000221A701C23FB181422BA189A601C23FE
:1023A000FB180122DA811C23FB181822BA185A6084
:1023B0001C23FB1801229A812C4B18002C4B9847A8
:1023C00000237B6346E07B6B2A4A2B480F212B4C72
:1023D000A047294B1800264B984700233B632FE06A
:1023E0007B6BDAB23B6BDBB2D318DBB2DB18DAB251
:1023F0001C23FB181A701C23FB1864211800204BA7
:1024000098470300FB62FB6A002B0CD11C23FB18CE
:102410001B78184A18480F21184CA047164B180073
:10242000134B984709E0144B164A1188198092788B
:102430009A70114B18000E4B98473B6B01333B636E
:102440003B6B0F2BCCDD104B1800094B98477B6B77
:1024500010337B637B6B7F2BB5DD0B4B1800044B7C
:10246000984700231800BD460FB090BD005F0200E2
:1024700009D00000345F020024050020114A020048
:10248000B53000003C5F0200005E020090B587B0EE
:1024900000AFF860B9607A6032237B610B4B9847DC
:1024A000021C0B4B101C984703007B617B69094A97
:1024B000B968F868084CA047FB681800074B9847B4
:1024C00000231800BD4607B090BDC046E945000096
:1024D0003D200200405F0200114A020009D00000C6
:1024E00080B588B000AF7860334B1800334B984705
:1024F000002214210220324B98470200314B1A600F
:102500000022032102202E4B984702002E4B1A6016
:102510002C4B1B68002B03D02B4B1B68002B03D1CB
:102520002A4B1800254B9847294B00221A70284B3C
:102530001B78012B1DD0022B35D0002B2FD1214B26
:102540001B680C22B91800221800224B9847030080
:10255000012B2AD1204B19000120204B98470C2336
:10256000FB1818001E4B9847194B01221A70C046E1
:102570001BE01C4B9847031E19D01B4B98470300C8
:1025800018001A4B98470300012B04D0184B190070
:102590000120124B98470E4B00221A7007E00C4B9B
:1025A00000221A7004E0C04602E0C04600E0C046C7
:1025B0002820104B9847BAE7F45F020009D00000CA
:1025C000A9960000200600202406002014600200C6
:1025D0001444002009A2000040600200F5D0000071
:1025E0000D4E0000494E00005D4E00004D6700009A
:1025F00068600200B5B3000090B585B000AF7860A8
:10260000064B1868796800230A22054CA04703008E
:10261000FB60FB681800BD4605B090BD2006002099
:102620005199000080B582B000AF0200FB1D1A7006
:10263000064BFA1D127811001F220A400121914019
:102640000A001A60C046BD4602B080BD00E100E04D
:1026500080B584B000AF78607B681B68FB60FB6866
:10266000DB695A1E9341DBB21800BD4604B080BD41
:1026700080B582B000AF7860C0467B681800044B1C
:102680009847031EF9D1C046BD4602B080BDC04682
:102690005126000080B582B000AF78607B68802250
:1026A000D2051A607B6800225A607B68FF221A817B
:1026B0007B6800229A727B680022DA727B6896221D
:1026C00092011A627B682422012199547B68252299
:1026D000012199547B682622002199547B68272286
:1026E000002199547B6800229A627B6888225203F9
:1026F000DA607B682C22002199547B682D2200210E
:1027000099547B6800221A637B6800225A637B68B5
:1027100000229A637B680022DA637B6800225A6198
:102720007B6800221A827B680022DA767B680022AE
:102730001A767B6800221A777B6800225A767B68BB
:1027400013229A767B6800225A77C046BD4602B0B3
:1027500080BD000080B584B000AF78607B681B68E6
:10276000FB607B681B681800094B98470300180042
:10277000084B98477B681800074B9847FB681B6815
:1027800002221A43FB681A60C046BD4604B080BDF1
:1027900081690100252600007126000080B582B005
:1027A00000AF78600A00FB1C1A707B6831229B5CCA
:1027B0005AB2FB1C1B78012199400B005BB21343FA
:1027C0005BB2D9B27B6831229954C046BD4602B093
:1027D00080BD000080B584B000AF78600023FB604E
:1027E000094B1B680C22BA1811001800074B9847B8
:1027F000FB68002B03D0064B802252051A60C046AE
:10280000BD4604B080BDC0461C440020D99F0000D6
:1028100004ED00E080B584B000AF78600023FB6079
:10282000094B1B680C22BA1811001800074B984777
:10283000FB68002B03D0064B802252051A60C0466D
:10284000BD4604B080BDC0461C440020D99F000096
:1028500004ED00E080B500AF104B9847104B98474F
:102860000120104B984702000F4B1A6003220021F1
:1028700001200E4B984702000D4B1A600A4B1B6853
:10288000002B03D00A4B1B68002B03D1094B180007
:10289000094B9847C046BD4680BDC0468D29000003
:1028A000052A00001199000020440020A99600008C
:1028B0001C4400209860020009D0000080B584B05C
:1028C00000AF786039600023FB6096235B0018003E
:1028D000254B98470300FB60FB68002B39D1234B45
:1028E00055221A702149224B01221800214B98478A
:1028F000031E30D1204B1B683A68110018001F4B93
:1029000098470300012B03D003235B42FB6023E0C5
:102910001B49174B022218001A4B9847164B1B688D
:102920003A6811001800154B98470300012B0CD191
:10293000134B1B789BB21B029AB2114B5B789BB274
:10294000D3189AB27B681A8006E003235B42FB60CF
:1029500002E0C04600E0C0460B4B9847FB681800F9
:10296000BD4604B080BDC046892A00001A4400203C
:1029700024440020E18101001C44002061A60000E5
:102980001844002029820100512A000080B590B02F
:1029900000AF3B001800144B98473B009622920171
:1029A0001A623B0080225203DA603B000F4A1A632E
:1029B0003B000F4A5A633B00012252429A633B009C
:1029C00001225242DA63C0463A000A490A4B180013
:1029D0000A4B9847031EF7D1074B1800084B98473E
:1029E000C046BD4610B080BD952600000300220001
:1029F00003002300001C004224440020E57D010068
:102A00005527000080B500AF0C490D4B002218007F
:102A10000C4B98470C490A4B01221800094B984768
:102A2000074B00211800094B9847054B012118005E
:102A3000064B9847C046BD4680BDC046D52700001E
:102A40002444002099810100152800009D270000E2
:102A500090B583B000AF00237B60094B186800235A
:102A600000220021074CA0470300012B02D01423B1
:102A70005B427B607B681800BD4603B090BDC046DA
:102A8000204400205199000080B584B000AF7860E8
:102A90000023FB60084B1B687A6811001800074B85
:102AA00098470300012B02D01D235B42FB60FB68AB
:102AB0001800BD4604B080BD2044002061A600007F
:102AC00080B582B000AF0200FB1D1A70064BFA1DE4
:102AD000127811001F220A40012191400A001A6059
:102AE000C046BD4602B080BD00E100E080B584B0C4
:102AF00000AF78607B681B68FB60FB68DB690722BE
:102B000013405A1E9341DBB21800BD4604B080BD8D
:102B100080B582B000AF7860C0467B681800044B77
:102B20009847031EF9D1C046BD4602B080BDC046DD
:102B3000ED2A000080B582B000AF78607B68642227
:102B40001A607B681B4A5A607B6800229A607B6827
:102B500000221A737B6800221A767B688022920317
:102B60001A617B6801225242DA827B68012252425A
:102B70009A827B680022DA617B6800221A627B6895
:102B80002422002199547B6800229A627B682C22BF
:102B9000002199547B682D22002199547B682E22B4
:102BA000002199547B68D7221A86C046BD4602B0E0
:102BB00080BDC046480D000080B584B000AF78608D
:102BC0007B681B68BB600023FB607B681800144BAC
:102BD0009847BB681B6802221A43BB681A607B686F
:102BE0001B6818000F4B9847030018000E4B9847BE
:102BF0000CE0FB680133FB607B68DB881A00FB6834
:102C00009A4203D8BB6810225A8306E0BB685B8BEC
:102C10009BB21A0010231340EBD0BD4604B080BD18
:102C2000112B000081690100C12A000080B582B02B
:102C300000AF78600A00FB1C1A707B685B7EDBB219
:102C40005AB2FB1C1B78012199400B005BB2134365
:102C50005BB2DAB27B685A76C046BD4602B080BD30
:102C600090B591B000AF0023FB633A23FB1800221C
:102C70001A703B1D1800214B98473B1D204ADA6112
:102C80003B1D204A1A623B1DFA229200DA823B2346
:102C9000FB1803221A701EE03A23FC183A1D1A4949
:102CA0001A4B18001A4B9847030023703A23FB185D
:102CB0001B78002B04D13A23FB181B78FB630FE031
:102CC000124B1800134B98473B23FB181A783B23F1
:102CD000FB18013A1A703B23FB181B78002BDBD141
:102CE000FB6B002B04D1094B18000B4B984700E0FD
:102CF000C046FB6B1800BD4611B090BD352B0000DF
:102D00000200080002000900000800425C440020A4
:102D10003D6D0000716E0000B92B000080B584B0DD
:102D200000AF78600E4B00221A700D4B01229A60A2
:102D30000023FB600B4B1B680C22BA181100180013
:102D4000094B9847094B00221A70FB68002B03D0EF
:102D5000074B802252051A60C046BD4604B080BDB4
:102D60002C06002084440020D99F00002806002063
:102D700004ED00E080B584B000AF78600E4B002217
:102D80001A700D4B01229A600023FB600B4B1B68ED
:102D90000C22BA1811001800094B9847094B002261
:102DA0001A70FB68002B03D0074B802252051A6073
:102DB000C046BD4604B080BD2C06002084440020DF
:102DC000D99F00002806002004ED00E080B584B003
:102DD00000AF78600E4B00221A700D4B01225A6032
:102DE0000023FB600B4B1B680C22BA181100180063
:102DF000094B9847094B01221A70FB68002B03D03E
:102E0000074B802252051A60C046BD4604B080BD03
:102E10002C06002084440020D99F000028060020B2
:102E200004ED00E080B500AF1149124B00221800FC
:102E3000114B98470F4B00211800104B9847104931
:102E40000C4B012218000C4B98470A4B012118002B
:102E50000A4B98470B49074B02221800064B98472C
:102E6000044B02211800054B9847C046BD4680BD63
:102E70001D2D00005C440020611500002D2C000079
:102E8000752D0000CD2D000080B582B000AF00236D
:102E90007B60144B984703007B607B68002B1AD142
:102EA000114B98470120114B98470200104B1A60B4
:102EB0000322002101200F4B984702000E4B1A609D
:102EC0000B4B1B68002B03D00B4B1B68002B03D153
:102ED00006237B6000E0C0467B681800BD4602B058
:102EE00080BDC046612C0000252E00001199000015
:102EF00058440020A99600008444002090B585B075
:102F000000AF78600023FB607B68002B03D07B68F8
:102F10005B68002B03D108235B42FB601FE07B68EA
:102F20001B789AB2104B1A807B685A680E4B5A6015
:102F30007B68DA890C4B5A800B23FC180A4A0B4B2E
:102F4000110018000A4B9847030023700B23FB184D
:102F50001B78002B03D006235B42FB60C046FB6856
:102F60001800BD4605B090BD884400205C44002098
:102F7000E517000090B585B000AF78600023FB60D6
:102F80007B68002B03D07B685B68002B03D1082390
:102F90005B42FB601FE07B681B789AB2104B1A8083
:102FA0007B689A680E4B5A607B689A890C4B5A80F2
:102FB0000B23FC180A4A0B4B110018000A4B9847C8
:102FC000030023700B23FB181B78002B03D0062370
:102FD0005B42FB60C046FB681800BD4605B090BD73
:102FE000884400205C4400200117000090B583B0A5
:102FF00000AF00237B60094B1868002300220021EA
:10300000074CA0470300012B02D014235B427B60D6
:103010007B681800BD4603B090BDC04658440020F0
:103020005199000080B584B000AF78600023FB6048
:10303000084B1B687A6811001800074B984703007B
:10304000012B02D01D235B42FB60FB681800BD46CC
:1030500004B080BD5844002061A6000080B584B053
:1030600000AF78600023FB60044B1A687B681A602D
:10307000FB681800BD4604B080BDC04684440020F3
:1030800080B500AF024B1B781800BD4680BDC0461E
:103090002806002080B582B000AF0200FB1D1A7028
:1030A000034BFA1D12781A70C046BD4602B080BDAF
:1030B0002806002080B584B000AF78603960002316
:1030C000FB600023BB6096235B001800284B9847E9
:1030D0000300FB60FB68002B38D10823FB181800A5
:1030E000244B98470300FB60FB68002B30D17B68C2
:1030F0001800214B98470300FB60FB68002B2AD186
:10310000BB683A68110018001C4B98470300012B5C
:1031100011D11B4B9847031E11D00020194B984723
:10312000FB68002B03D021235B42FB6014E00323E8
:103130005B42FB6010E003235B42FB600CE0124B40
:1031400098470200FB681343FB6002E0C04600E0C2
:10315000C046FB6807E0C0460B4B98470200FB687F
:103160001343FB60FB681800BD4604B080BDC04639
:10317000253000005D300000FD2E000061A600003B
:103180008130000095300000ED2F000080B586B042
:1031900000AFF860B9607A6000237B6100233B6177
:1031A00096235B001800364B984703007B617B69D0
:1031B000002B55D11023FB181800324B9847030001
:1031C0007B617B69002B4DD1FB6818002E4B984723
:1031D00003007B617B69002B47D13B697A68110052
:1031E00018002A4B98470300012B18D1284B984709
:1031F000031E06D00020274B984703235B427B61C8
:1032000034E0BB681800244B9847FB681800234B38
:10321000984703007B617B69002B04D026E00323E1
:103220005B427B6122E03B697A6811001800174B12
:1032300098470300012B0AD1154B9847031E0AD06B
:103240000020144B984703235B427B610EE003236D
:103250005B427B610AE0124B984703007B6102E00E
:10326000C04600E0C0467B6905E0C0460C4B98476D
:1032700003007B617B691800BD4606B080BDC04677
:10328000253000005D300000FD2E000061A600002A
:103290008130000095300000B5B30000752F0000AC
:1032A000ED2F0000B0B586B000AFF86008007A607E
:1032B00019000B23FB18021C1A700823FB180A1CA8
:1032C0001A80FB685C68FB6898680823FB181D88F7
:1032D0007A680B23FB1819782B00A04703007B6149
:1032E0007B691800BD4606B0B0BDB0B586B000AF72
:1032F000F86008007A6019000B23FB18021C1A7092
:103300000823FB180A1C1A80FB681C68FB68986875
:103310000823FB181D887A680B23FB1819782B00EB
:10332000A04703007B617B691800BD4606B0B0BDB5
:1033300080B582B000AF0200BB1D1A80BB1D002209
:103340009A5E064B10009847021C054B0549101C5D
:103350009847031C181CBD4602B080BDD92B020043
:103360002126020023DB793D90B585B000AF78605F
:103370000A00FB1C1A700823FA1878680123102130
:10338000124CA0470300FB60FB68002B19D1FB1C0B
:103390001B7803221340DAB20823FB1803210A40EA
:1033A00090001A780C218A43111C021C0A431A70DF
:1033B0000823FA18786801231021054CA047030060
:1033C000FB60FB681800BD4605B090BDA53200004B
:1033D000EB32000090B587B000AF78600A00FB1CAC
:1033E0001A701723FB18FA1C12781A700C23FA189B
:1033F0007B6811001800A44B984703003B613B69B0
:10340000002B00D013E10C23FB181B78DB07DB0F2C
:10341000DAB20C23FB181B789B07DB0FDBB21343DC
:10342000DAB20C23FB181B785B07DB0FDBB213430C
:10343000DAB20C23FB181B781B07DB0FDBB213433C
:10344000DAB20C23FB181B78DB06DB0FDBB213436D
:10345000DAB20C23FB181B789B06DB0FDBB213439D
:10346000DAB20C23FB181B785B06DB0FDBB21343CD
:10347000DAB20C23FB181B781B06DB0FDBB21343FD
:10348000DAB20C23FB185B78DB07DB0FDBB21343EC
:10349000DAB20C23FB185B789B07DB0FDBB213431C
:1034A000DAB20C23FB185B785B07DB0FDBB213434C
:1034B000DAB20C23FB185B781B07DB0FDBB213437C
:1034C000DAB20C23FB185B78DB06DB0FDBB21343AD
:1034D000DAB20C23FB185B789B06DB0FDBB21343DD
:1034E000DAB20C23FB185B785B06DB0FDBB213430D
:1034F000DAB20C23FB185B781B06DB0FDBB213433D
:10350000DBB2012B00D092E00B23FA187B6811008C
:1035100018005E4B984703003B613B69002B00D0CD
:1035200085E00B23FB181B78012B17D002DC002B46
:1035300005D076E0022B29D0032B48D071E0FB1C8C
:103540001B78002B04D11723FB1801221A706EE0A0
:103550001723FB18FA1C12781A7068E0FB1C1B7802
:10356000002B04D11723FB1802221A705FE0FB1C0A
:103570001B78012B04D11723FB1802221A7056E086
:103580001723FB18FA1C12781A7050E0FB1C1B78EA
:10359000002B04D11723FB1803221A7047E0FB1CF1
:1035A0001B78012B04D11723FB1803221A703EE06D
:1035B000FB1C1B78022B04D11723FB1803221A7063
:1035C00035E01723FB18FA1C12781A702FE0FB1C49
:1035D0001B78002B04D11723FB1804221A7026E055
:1035E000FB1C1B78012B04D11723FB1804221A7033
:1035F0001DE0FB1C1B78022B04D11723FB180422AF
:103600001A7014E0FB1C1B78032B04D11723FB1842
:1036100004221A700BE01723FB18FA1C12781A7098
:1036200005E01723FB18FA1C12781A70C0463B6994
:10363000002B08D10823FA18786801231021144CB4
:10364000A04703003B613B69002B18D11723FB18EF
:103650001B780F221340DAB20823FB1810011A78E6
:103660000F210A40111C021C0A431A700823FA1881
:10367000786801231021074CA04703003B613B6998
:103680001800BD4607B090BDB13E0000053F0000E8
:10369000A5320000EB32000090B585B000AF786035
:1036A0000A00FB1C1A700823FA18786801231121FC
:1036B000124CA0470300FB60FB68002B19D1FB1CD8
:1036C0001B7807221340DAB20823FB1807210A40AF
:1036D00090181A780E218A43111C021C0A431A7092
:1036E0000823FA18786801231121054CA04703002C
:1036F000FB60FB681800BD4605B090BDA532000018
:10370000EB32000090B587B000AF78600A00FB1C78
:103710001A701723FB18FA1C12781A700C23FA1867
:103720007B6811001800A44B984703003B613B697C
:10373000002B00D013E10C23FB181B78DB07DB0FF9
:10374000DAB20C23FB181B789B07DB0FDBB21343A9
:10375000DAB20C23FB181B785B07DB0FDBB21343D9
:10376000DAB20C23FB181B781B07DB0FDBB2134309
:10377000DAB20C23FB181B78DB06DB0FDBB213433A
:10378000DAB20C23FB181B789B06DB0FDBB213436A
:10379000DAB20C23FB181B785B06DB0FDBB213439A
:1037A000DAB20C23FB181B781B06DB0FDBB21343CA
:1037B000DAB20C23FB185B78DB07DB0FDBB21343B9
:1037C000DAB20C23FB185B789B07DB0FDBB21343E9
:1037D000DAB20C23FB185B785B07DB0FDBB2134319
:1037E000DAB20C23FB185B781B07DB0FDBB2134349
:1037F000DAB20C23FB185B78DB06DB0FDBB213437A
:10380000DAB20C23FB185B789B06DB0FDBB21343A9
:10381000DAB20C23FB185B785B06DB0FDBB21343D9
:10382000DAB20C23FB185B781B06DB0FDBB2134309
:10383000DBB2012B00D092E00B23FA187B68110059
:1038400018005E4B984703003B613B69002B00D09A
:1038500085E00B23FB181B78012B17D002DC002B13
:1038600005D076E0022B29D0032B48D071E0FB1C59
:103870001B78002B04D11723FB1801221A706EE06D
:103880001723FB18FA1C12781A7068E0FB1C1B78CF
:10389000002B04D11723FB1802221A705FE0FB1CD7
:1038A0001B78012B04D11723FB1802221A7056E053
:1038B0001723FB18FA1C12781A7050E0FB1C1B78B7
:1038C000002B04D11723FB1803221A7047E0FB1CBE
:1038D0001B78012B04D11723FB1803221A703EE03A
:1038E000FB1C1B78022B04D11723FB1803221A7030
:1038F00035E01723FB18FA1C12781A702FE0FB1C16
:103900001B78002B04D11723FB1804221A7026E021
:10391000FB1C1B78012B04D11723FB1804221A70FF
:103920001DE0FB1C1B78022B04D11723FB1804227B
:103930001A7014E0FB1C1B78032B04D11723FB180F
:1039400004221A700BE01723FB18FA1C12781A7065
:1039500005E01723FB18FA1C12781A70C0463B6961
:10396000002B08D10823FA18786801231121144C80
:10397000A04703003B613B69002B18D11723FB18BC
:103980001B780F221340DAB20823FB1810011A78B3
:103990000F210A40111C021C0A431A700823FA184E
:1039A000786801231121074CA04703003B613B6964
:1039B0001800BD4607B090BDB13E0000053F0000B5
:1039C000A5320000EB32000090B585B000AF786002
:1039D0000A00FB1C1A700823FA18786801231221C8
:1039E000124CA0470300FB60FB68002B19D1FB1CA5
:1039F0001B7801221340DAB20823FB1801210A4088
:103A000090011A7840218A43111C021C0A431A7043
:103A10000823FA18786801231221054CA0470300F7
:103A2000FB60FB681800BD4605B090BDA5320000E4
:103A3000EB32000090B585B000AF78600A00FB1C47
:103A40001A700823FA18786801231521124CA04730
:103A50000300FB60FB68002B19D1FB1C1B780122C3
:103A60001340DAB20823FB1801210A40D0001A786B
:103A700008218A43111C021C0A431A700823FA18F1
:103A8000786801231521054CA0470300FB60FB6803
:103A90001800BD4605B090BDA5320000EB32000015
:103AA00090B585B000AF786039600823FA1878685F
:103AB00001231E21084CA0470300FB600823FB18CC
:103AC0001B78DB07DB0FDBB21A003B681A70FB6860
:103AD0001800BD4605B090BDA532000090B587B076
:103AE00000AF786039600C23FA1878680623282123
:103AF000264CA04703007B610C23FB185B781AB2AD
:103B00003B681A803B6800229B5E9BB21B029AB204
:103B10000C23FB181B789BB2D3189BB21AB23B68DC
:103B20001A803B6802330C22BA18D27812B21A807B
:103B30003B6802333A6802320021525E92B21202AE
:103B400091B20C22BA18927892B28A1892B212B23A
:103B50001A803B6804330C22BA18527912B21A80C8
:103B60003B6804333A6804320021525E92B212027A
:103B700091B20C22BA18127992B28A1892B212B289
:103B80001A807B691800BD4607B090BDA5320000C1
:103B900090B585B000AF78600A00FB1C1A7008234E
:103BA000FA18786801230121114CA0470300FB603B
:103BB000FB68002B17D1FB1C1B7803221340DAB2E1
:103BC0000823FB1890011A783F210A40111C021C9F
:103BD0000A431A700823FA18786801230121054C5A
:103BE000A0470300FB60FB681800BD4605B090BD10
:103BF000A5320000EB32000090B585B000AF7860D0
:103C000039603A68786801230F21044CA04703000B
:103C1000FB60FB681800BD4605B090BDA5320000F2
:103C200090B585B000AF78600A00FB1C1A700823BD
:103C3000FA18786801231221124CA0470300FB6098
:103C4000FB68002B19D1FB1C1B7801221340DAB250
:103C50000823FB1801210A4010001A7801218A4329
:103C6000111C021C0A431A700823FA1878680123F1
:103C70001221054CA0470300FB60FB681800BD46FD
:103C800005B090BDA5320000EB32000090B585B0C4
:103C900000AF786039600823FA1878680123122190
:103CA000084CA0470300FB600823FB181B78DB07C8
:103CB000DB0FDBB21A003B681A70FB681800BD46C8
:103CC00005B090BDA532000090B585B000AF78601A
:103CD0000A00FB1C1A700823FA18786801231021C7
:103CE000124CA0470300FB60FB68002B19D1FB1CA2
:103CF0001B7801221340DAB20823FB1801210A4085
:103D000090181A7802218A43111C021C0A431A7067
:103D10000823FA18786801231021054CA0470300F6
:103D2000FB60FB681800BD4605B090BDA5320000E1
:103D3000EB32000090B585B000AF78600A00FB1C44
:103D40001A700823FA18786801231721254CA04718
:103D50000300FB60FB68002B3FD1FB1C1B781B0999
:103D6000DBB21A1C01231340DAB20823FB1801212D
:103D70000A4090001A7804218A43111C021C0A434D
:103D80001A70FB1C1B785B09DBB21A1C0123134061
:103D9000DAB20823FB1801210A4010011A78102119
:103DA0008A43111C021C0A431A70FB1C1B78072251
:103DB0001340DAB20823FB1850011A781F210A4079
:103DC000111C021C0A431A700823FA187868012390
:103DD0001721054CA0470300FB60FB681800BD4697
:103DE00005B090BDA5320000EB32000090B587B061
:103DF00000AF78600A00FB1C1A700C23FA18786870
:103E000001231821284CA04703007B617B69002B0C
:103E10001CD1FB1C1B78DB09DBB21A1C01231340ED
:103E2000DAB20C23FB1801210A4090181A780221FB
:103E30008A43111C021C0A431A700C23FA18786872
:103E400001231821194CA04703007B617B69002BDB
:103E500008D11023FA18786801236221124CA04778
:103E600003007B617B69002B19D1FB1C1B780322AB
:103E70001340DAB21023FB1803210A40D0001A784D
:103E800018218A43111C021C0A431A701023FA18C5
:103E9000786801236221054CA04703007B617B69A0
:103EA0001800BD4607B090BDA5320000EB320000FF
:103EB00090B585B000AF786039607B68022118004A
:103EC0000E4B98470300FB60FB68002B07D13A6854
:103ED0007868022346210A4CA0470300FB60FB6878
:103EE000002B06D17B6800211800044B9847030083
:103EF000FB60FB681800BD4605B090BD913B00001B
:103F0000A532000090B585B000AF786039607B685D
:103F100002211800214B98470300FB60FB68002B2F
:103F200008D10823FA18786801235F211C4CA047A8
:103F30000300FB60FB68002B2BD10823FB181B78C8
:103F4000DB069B0FDBB2012B0CD002DC002B05D073
:103F500014E0022B0AD0032B0CD00FE03B680022A8
:103F60001A700FE03B6801221A700BE03B680222D6
:103F70001A7007E03B6803221A7003E03B680022D6
:103F80001A70C0467B6800211800044B9847030054
:103F9000FB60FB681800BD4605B090BD913B00007A
:103FA000A532000080B584B000AFF86008007A60E8
:103FB00019000B23FB18021C1A700823FB180A1C9B
:103FC0001A8000231800BD4604B080BD80B584B0BF
:103FD00000AFF86008007A6019000B23FB18021C80
:103FE0001A700823FB180A1C1A8000231800BD460B
:103FF00004B080BD80B500AF014B1800BD4680BD48
:104000001400002080B582B000AF00237B60234BFA
:1040100001211800224B984703007B60FA1C1F4BBC
:10402000110018001F4B984702007B6813437B6008
:10403000FB1C1B78002BF1D1184B802118001A4B68
:104040009847164B01211800184B9847134B002135
:104050001800174B9847114B01211800154B984732
:104060000E4B01211800144B98470C4B00211800EF
:10407000124B9847094B06211800114B9847074BE4
:10408000042118000F4B9847044B012118000E4BD8
:1040900098477B681800BD4602B080BD1400002020
:1040A000213C00008D3C0000ED3D0000C9390000BE
:1040B000353A0000D53300000537000069330000B1
:1040C00099360000353D0000C93C000080B584B041
:1040D00000AF39601100FB1D021C1A703B1D0A1C49
:1040E0001A800023BB60174BFA1D12781A70002348
:1040F000FB600AE0FB680133FA6839688A181178B6
:10410000104AD154FB680133FB603B1D1A88FB68E1
:104110009A42EFDC0C4B2A221A700B4B094A5A6068
:104120003B1D1B8801339AB2074BDA81064B642191
:104130001800064B98470300BB60BB681800BD46DB
:1041400004B080BDA444002094440020B530000099
:1041500080B584B000AF39601100FB1D021C1A70DD
:104160003B1D0A1C1A800023FB60104B2A221A7088
:104170000E4B3A689A600D4B3A1D12889A810C4B8F
:10418000FA1D12781A70094B0122DA81074B084A8E
:104190005A60064B642205211800064B984703001D
:1041A000FB60FB681800BD4604B080BD944400204D
:1041B000A44400208D31000080B584B000AF02001F
:1041C000FB1D1A700749FB1D1B7801221800064BC6
:1041D00098470300FB60034B1B781800BD4604B0F2
:1041E00080BDC046400600205141000080B584B02B
:1041F00000AF0200FB1D1A70BB1D0A1C1A70B91D0E
:10420000FB1D1B7801221800044B98470300FB603C
:10421000FB68DBB21800BD4604B080BDCD40000095
:1042200090B583B000AFFB1D00221A70FC1D022068
:10423000214B984703002370FB1DFA1D12780721BC
:104240008A431A70FB1DFA1D12781A70FB1D1B7829
:1042500019000220194B9847FB1DFA1D1278042102
:104260000A431A70FB1D1B7819000220134B984754
:104270003220134B9847FC1D02200F4B9847030038
:104280002370FB1D1B780422134000D0F0E7C046CA
:10429000FB1DFA1D127808210A401A70FB1D1B78BD
:1042A0000822134000D0C1E7C0460120044B9847C4
:1042B000C046BD4603B090BDB9410000ED410000CD
:1042C000C1F3000080B582B000AFFB1D00221A7060
:1042D000FB1D01221A70FB1D1B78190000201D4BCD
:1042E000984701201C4B9847FB1D02221A70FB1DAA
:1042F0001B7819000020174B98473220164B98471F
:10430000FB1D27221A70FB1D1B7819000120114B81
:1043100098470120104B9847FB1D86221A70FB1D01
:104320001B78190000200B4B984701200A4B984737
:10433000FB1D30221A70FB1D1B7819001520054B40
:1043400098470120044B9847044B9847C046BD4608
:1043500002B080BDED410000C1F300002142000029
:1043600090B583B000AFFB1D00221A70FC1D002029
:10437000094B984703002370FB1DFA1D127810218A
:104380000A431A70FB1D1B7819000020034B984745
:10439000C046BD4603B090BDB9410000ED410000EC
:1043A00080B584B000AF0220144B98470300FB6037
:1043B000FB68DBB219000220114B98470A20114B11
:1043C000984712200D4B98470300FB6013200B4BBE
:1043D00098470300BB601420084B984703007B609C
:1043E000FB681A04BB681B021A437B6813433B60DB
:1043F0003B681800BD4604B080BDC046B94100000E
:10440000ED410000B5B30000B0B58AB000AF7860F0
:1044100000237B6100237B6200233B620620694B03
:10442000984703001A001023FB181A700720654BE9
:10443000984703001A001023FB185A700820614B9C
:10444000984703001A001023FB189A7009205D4B4F
:10445000984703001A001023FB18DA700320594B09
:10446000984703001A000C23FB181A700420554BC0
:10447000984703001A000C23FB185A700520514B73
:10448000984703001A000C23FB189A701F23FB6146
:104490002CE0FB69002B00DA0733DB105B420333AF
:1044A0001022BA18D35C1900FB69474A134004D59F
:1044B000013B082252421343013319410B000122F0
:1044C0001340FA69173A41494A43022191400A00D0
:1044D0005A433F4B10009847021C3E4B111C786A10
:1044E0009847031C7B62FB69013BFB61FB69002B66
:1044F000CFDA1623BB612CE0BB69002B00DA07334F
:10450000DB105B4202330C22BA18D35C1900BB6982
:104510002D4A134004D5013B082252421343013374
:1045200019410B0001221340BA69173A27494A433F
:10453000022191400A005A43254B10009847021C63
:10454000244B111C386A9847031C3B62BB69013B32
:10455000BB61BB69002BCFDA0C23FB181B78DB098E
:10456000DBB21A0001239B1A01221A40184B1000DB
:104570009847021C184B111C386A9847031C3B6271
:10458000164B1749786A9847031C1C1C104B786817
:104590009847051C114B1249386A9847031C1A1C8E
:1045A000104B111C281C9847031C1A1C0A4B111C89
:1045B000201C9847031C7B617B69181CBD460AB010
:1045C000B0BDC046B94100000700008010270000C0
:1045D000D92B02006D200200212602009123020047
:1045E00000401C466128020080B582B000AF0F4B2E
:1045F00098470F4B98470F4B9847C04600200E4BEB
:10460000984703001A0020231340202BF6D10B4BB0
:10461000984703007B607B681800094B9847031C90
:104620003B603B68181CBD4602B080BD892E00006F
:10463000C542000061430000B9410000A1430000F1
:104640000944000080B582B000AF384B2E221A70AA
:10465000364B374A5A60354B0222DA81334B3A00E7
:104660009A60324B01229A81304B6422002118005B
:10467000304B984703007B607B68002B04D02E4BA7
:1046800018002E4B98470CE03B001B78552B04D0AC
:104690002B4B1800294B984703E02A4B1800274B57
:1046A0009847224B284A5A60204B0322DA811F4B3D
:1046B00064211800254B984703007B607B68002B22
:1046C00003D0234B18001D4B9847184B214A5A60C2
:1046D000164B0322DA81154B642118001B4B9847B7
:1046E00003007B607B68002B03D01B4B1800134B2F
:1046F00098470E4B194A5A600C4B0422DA810B4B37
:1047000064211800114B984703007B607B68002BE5
:1047100003D0134B1800094B9847124B9847124B84
:1047200098477B681800BD4602B080BDE444002075
:10473000C06002008D310000D860020009D0000086
:10474000F860020004610200C4600200B53000009D
:1047500018610200C860020038610200CC600200EB
:1047600064610200194B0000294A000080B582B044
:1047700000AFFB1C00221A70114B2E221A70104B36
:10478000104A5A600E4B0222DA810D4BFA1C9A60D5
:104790000B4B01229A810A4B6422002118000A4B1C
:1047A000984703007B607B68002B03D0074B180001
:1047B000074B9847FB1C1B781800BD4602B080BD14
:1047C000E4440020D46002008D31000098610200B2
:1047D00009D0000080B584B000AF78600A00FB1CEF
:1047E0001A70FB1C1B78002B01D1002326E0082344
:1047F000FB18144A12881A80134B2E221A70124B7F
:104800000822BA185A60104B0222DA810E4B7A68DD
:104810009A60FB1C1B789AB20B4B9A810A4B64225C
:1048200000211800094B98470300FB60FB68002B30
:1048300003D0074B1800074B9847FB681800BD468C
:1048400004B080BDBC610200E44400208D31000052
:104850009861020009D0000090B587B000AF040055
:1048600008001100FB1D221C1A70BB1D021C1A70CF
:104870007B1D0A1C1A701023FB187A1D1278012167
:10488000100008401A7801218A43111C021C0A43B7
:104890001A70BB1D1B7801229A401300DBB21A1C50
:1048A0000F231340DAB21023FB180F210A4090188F
:1048B0001A781E218A43111C021C0A431A700C2309
:1048C000FB1810221A700C23FB1801225A700C23BB
:1048D000FB18FA1D12789A701023FB181A780C2313
:1048E000FB18DA700C4B2E221A700B4B0C22BA18E4
:1048F0005A60094B0422DA81074B00229A81064B49
:1049000064211800054B984703007B617B69180000
:10491000BD4607B090BDC046E4440020B53000005D
:10492000B0B586B000AF05000C0010001900FB1DEB
:104930002A1C1A70BB1D221C1A707B1D021C1A70C7
:104940003B1D0A1C1A700823FB180E221A7008233C
:10495000FB1804225A700823FB1800229A700823BF
:10496000FB180022DA700823FB187A1D12781A71DE
:104970000823FB18BA1D12785A710823FB183A1D38
:1049800012789A71FB1D1B789BB21622BA18191C5B
:104990000B1CDB185B1813801623FB181B881B0AE3
:1049A0009BB2DAB20823FB189A701623FB181B88F7
:1049B000DAB20823FB18DA70094B0822BA185A60D9
:1049C000074B0722DA81064B64211800054B9847F4
:1049D00003003B613B691800BD4606B0B0BDC04650
:1049E000E4440020B530000080B582B000AF3B0049
:1049F0000A4A12881A800A4B3A005A60084B02226F
:104A0000DA81074B64211800064B984703007B604E
:104A10007B681800BD4602B080BDC046C061020080
:104A2000E4440020B530000080B582B000AF334BC5
:104A30002E221A70314B324A5A60304B0322DA81EF
:104A40002E4B00229A812D4B642118002D4B984744
:104A500003003B603B68002B03D02B4B18002B4B13
:104A6000984700237B6041E07B68002B00DA03332A
:104A70009B10DBB2DB00DAB27B6825490B4004D522
:104A8000013B042149420B430133DBB2D318DBB2B3
:104A90000122032118001F4B984703003B607B68ED
:104AA000002B00DA03339B10DBB2DB00DAB27B6849
:104AB00017490B4004D5013B042149420B43013304
:104AC000DBB2D318DBB2012202211800114B984748
:104AD00002003B6813433B603B68002B03D00A4B4A
:104AE00018000A4B98477B6801337B607B680F2B6B
:104AF000BADDC046BD4602B080BDC046E4440020D9
:104B0000D0600200B5300000C461020009D000008E
:104B10000300008059480000B0B500AFFF23FF221A
:104B2000FF210F20094CA047094B9847C8235B0081
:104B30001800084B98470023002200210F20034C47
:104B4000A047034B9847C046BD46B0BD2149000071
:104B5000E9490000B5B3000090B589B002AF7860B4
:104B6000964B1800964B9847964B01221A70964B1D
:104B70009847012300932E233E2201210120934CCC
:104B8000A047FF2300930123142214212420904CDA
:104B9000A0478C4B1B78012B00D107E1022B02D0E0
:104BA000002B6ED0FEE08B4B00221A708A4B012244
:104BB0001A708A4B1422FF211800894B9847894BA1
:104BC00000221A701723FC18874B984703002370A4
:104BD0001723FB181B780F2B03D91723FB18102260
:104BE0001A701723FB181B78002B07D01723FB180C
:104BF0001A787E4B110018007D4B98477B4B102292
:104C000000211800764B98477A4B1B78D9B27A4B23
:104C10001B78DAB2794B1B78DBB20020784CA047C6
:104C2000784B9847FA239B001800774B984700234E
:104C3000002200210020724CA0476E4B1B78D9B295
:104C40006D4B1B78DAB26D4B1B78DBB20F206C4CCE
:104C5000A0476C4B9847FA239B0018006A4B984773
:104C60000023002200210F20654CA047654B984788
:104C7000FA239B001800644B9847524B00221A708D
:104C800097E01623FC18584B984703002370574BA6
:104C9000102200211800524B98471623FB181B784E
:104CA0000F2B03D91623FB1810221A701623FB189A
:104CB0001B78002B65D01623FB181A784B4B11007C
:104CC00018004B4B9847031E5BD100233B6150E01B
:104CD000464A3B69D3181B789B08DBB2002B00DAED
:104CE0000733DB10DBB29B00D9B2404A3B69D318D3
:104CF0001B789B08DBB207221340DAB20F23FB18A4
:104D00008A181A70394A3B69D3181A780E23FB188F
:104D100003210A401A700E23FB181B78032B0FD1B6
:104D2000344B1B78D9B2344B1B78DAB2334B1B7837
:104D3000DCB20F23FB1818782300314CA04715E094
:104D40000F23FB1818780023002200212C4CA047C9
:104D5000204B1B781900214B0F22BA1812785A5495
:104D60001C4B1B780133DAB21A4B1A703B690133C2
:104D70003B611623FB181A783B699A42A8DC214B49
:104D80009847144B1A78144B1B789A4203D2114B54
:104D90001B78132B0CD9134B01221A70094B0122DB
:104DA0001A7005E0074B00221A7002E0C04600E0CE
:104DB000C0463220144B9847EBE6C046E86102003B
:104DC00009D000002C450020750A0000B504000041
:104DD0003D0700004206002043060020F444002066
:104DE000B7470200440600206D4700001C45002024
:104DF000D5470000410600202000002021000020AF
:104E000021490000E9490000B5B3000080B582B037
:104E100000AF7860084A7B681000190014231A005C
:104E2000064B9847064B02221A70064B00221A7056
:104E3000C046BD4602B080BD084500208147020043
:104E40002C4500204406002080B500AF024B1B78A3
:104E50001800BD4680BDC0464406002080B500AFA6
:104E6000014B1800BD4680BDF444002090B583B0CE
:104E700000AF040008001100FB1D221C1A70BB1DAE
:104E8000021C1A707B1D0A1C1A70084BFA1D12783E
:104E90001A70074BBA1D12781A70064B7A1D1278D9
:104EA0001A70C046BD4603B090BDC0464106002002
:104EB000200000202100002080B584B000AF020057
:104EC000FB1D1A700F23FB18FA1D1278D2091A70F5
:104ED0000E23FB18FA1D127852091A700D4BBB6095
:104EE0000F23FB181B78002B0FD10F23FB181B7807
:104EF0009B0010229446BC446344083B1A680E236E
:104F0000FB181B78DB01D31800E000231800BD4616
:104F100004B080BD0044004180B582B000AF020003
:104F2000FB1D1A70FB1D1B781800034B98470300EC
:104F30001800BD4602B080BDB94E000080B584B0F7
:104F400000AF0200FB1D1A70BB1D0A1C1A70FB1D6E
:104F50001B7818000D4B98470300FB60FB1D1B7866
:104F60001F22134001229A401300BB60BB1D1B7817
:104F7000002B03D0FB68BA689A6102E0FB68BA684C
:104F80005A61C046BD4604B080BDC046194F0000FE
:104F900080B500AF024B00221A70C046BD4680BDEE
:104FA0005906002080B582B000AF0200FB1D1A70C8
:104FB000FB1D1B785BB2DB435BB2064A127852B230
:104FC00013405BB2DAB2034B1A70C046BD4602B062
:104FD00080BDC0465906002080B582B000AF0200F7
:104FE000FB1D1A70054B1A78FB1D1B781343DAB2B0
:104FF000024B1A70C046BD4602B080BD5906002063
:1050000080B582B000AF0200FB1D1A70064B1B7802
:10501000FA1D12781340DBB25A1E9341DBB218001E
:10502000BD4602B080BDC0465906002090B585B08F
:1050300000AF786039607B68002B02D03B68002BA2
:1050400001D1002313E00F23FC1839680A4B00221A
:1050500018000A4B984703002370074B1800084BB1
:1050600098470F23FB181B785A425341DBB21800B4
:10507000BD4605B090BDC0468C08002005CC01009F
:1050800005D6010080B59EB000AFF860B960FB1D89
:105090001A707623FB1801221A807423FB18002251
:1050A0001A806E23FB1800221A807223FB1800223C
:1050B0001A802423FB18180041231A000021924B68
:1050C00098471823FB18180009231A0000218E4B5B
:1050D00098471423FB1800221A600023BB66712333
:1050E000FB1800221A70BB68002B01D1002306E1D7
:1050F000BA68FB6811001800844B984703001A0037
:1051000001235340DBB2002B01D00123F7E0BB6841
:1051100018007F4B98470300402B01D90023EEE095
:10512000BB682E2118007B4B98470300BB66BB6E03
:10513000002B52D0BB6E1800754B984702006E23AF
:10514000FB181A806E23FB181B88072B37D8712396
:10515000FB1801221A70BA6E1823FB1811001800F0
:105160006D4B9847BB681800694B984702006E2347
:10517000FB181B88D31A3C2B11D97423FB186E2201
:10518000BA1812883C218A1A1A807423FB181A88CC
:10519000B9682423FB181800604B98472AE0BA6EC0
:1051A000BB68D21A7423FB181A807423FB181A8860
:1051B000B9682423FB181800584B98471AE0742349
:1051C000FB183C221A807423FB181A88B968242320
:1051D000FB181800514B98470CE07423FB183C2235
:1051E0001A807423FB181A88B9682423FB18180046
:1051F0004A4B98477423FB181B887422BA18591C11
:1052000011801A002423FB182D2199547623FB18B2
:1052100000221A807223FB1801221A8010E07223E8
:10522000FA187223FB181B88191C8900CB18DB188D
:1052300013807623FB181A887623FB1801321A8014
:105240007623FB181B88022BE9D97623FB18012251
:105250001A804BE07623FB181A8831491423FB1877
:105260001800304B98477423FB181B882422BA1867
:10527000D3181422B91803221800284B9847712319
:10528000FB181B78002B0CD07423FB181B880333EE
:105290002422BA18D3181822BA18110018001E4B6D
:1052A00098472423FA18FB6811001800174B9847F9
:1052B00003001A0001235340DBB2002B0FD0FB1D6B
:1052C0001A78BB68002118000F4B98472423FA185E
:1052D000BB6811001800104B984701230FE076239C
:1052E000FB181A887623FB1801321A807623FA18E5
:1052F0007223FB1812881B889A42ABD30023180034
:10530000BD461EB080BDC046B74702002D5000000C
:105310006F4B0200C94B0200234B02009F4B02005F
:1053200010620200754A020090B585B002AF0120FC
:10533000234B984703001A0001235340DBB2002B94
:1053400005D0204B190001201F4B984734E0022064
:105350001B4B984703001A0001235340DBB2002B7C
:1053600005D01A4B19000120174B984724E0042060
:10537000134B9847031E05D0154B19000120124B03
:10538000984719E008200E4B9847031E05D0114B93
:10539000190001200C4B98470EE00F4B190001201B
:1053A000094B98470D490E48002300930023012222
:1053B0000C4CA04703007B60BD4603B090BDC046C7
:1053C0000150000018620200F5D0000044620200A3
:1053D000706202009C620200C8620200F462020075
:1053E0008845002059020200B0B586B000AF786051
:1053F00039607B68002B02D03B68002B05D1584BED
:1054000019000120574B9847A6E00820564B9847B3
:1054100003001A0001235340DBB2002B55D00023B8
:105420007B61524B30221A70504B3A225A70504BCB
:105430007B6102E07B69013B7B617B691B782F2BE1
:10544000F8D17B6918004B4B98470300012B24D9F6
:105450007B6901337B617A69474B11001800474B28
:1054600098474249464B40221800464B98473F4ACE
:10547000454B190001203B4B98471323FC183B492F
:105480003F4B0A221800414B984703002370132317
:10549000FB181B78002B12D008E03D4B19000120AF
:1054A000304B984720203B4B984755E01323FB187F
:1054B0001A78394B190001202A4B98474CE0374B9A
:1054C00000221A600820334B98477B68002B43D09A
:1054D0000023FB601323FC180C23FB183A6879683F
:1054E00027482F4DA847030023701323FB181B7870
:1054F000002B0CD0224B18002A4B98472020254B1C
:105500009847294B19000120164B984724E0234B5C
:105510001A68FB68D218214B1A60204B1A68234B7B
:105520001B68234901200F4CA0471C4B1A681F4BD6
:105530001B689A4210D3124B18001A4B98471D4B08
:1055400019000120074B9847002117201A4B984754
:105550001020104B9847C046BD4606B0B0BDC046AF
:1055600014630200F5D0000001500000A8000020E4
:10557000136302006F4B0200AA000020234B0200BD
:105580008C080020855000007863020005CC0100E3
:1055900038630200D94F0000A0630200B408002065
:1055A00035D1010005D60100D4630200B008002007
:1055B00010640200446402003D4F000090B585B0C5
:1055C00000AFF860B9607A60BB68042B00D977E05F
:1055D000BB689A003C4BD3181B689F463B4B190095
:1055E00001203B4B98476BE03A4B19000120384BA8
:1055F00098470420384B984762E07B681B881A0064
:105600007B685B6835490120314CA0477B681B886B
:10561000C82B0DD17B685A68314B1A60314B002280
:105620001A607B685A6880239B009A4243D803E043
:105630002020294B984743E07B689A687B685B6829
:1056400019001000284B98471020234B984732E050
:105650007B685A687B681B6819001000224B9847CA
:105660007B681B7A002B28D010201B4B984724E026
:105670007B681A681D4B19000120154B98477B6801
:105680001B680B331BD10820194B9847031E06D00B
:10569000184B1800184B98470820184B98470420BF
:1056A000134B9847031E02D00420144B9847144B09
:1056B0009847C04603E0C04602E0C04600E0C0464E
:1056C000BD4605B090BDC046A06B020078640200E4
:1056D000F5D00000B0640200D94F0000DC64020085
:1056E000B0080020B4080020E9530000186502004B
:1056F000015000008C08002005D60100A54F0000D5
:105700002953000080B582B000AF3A60FB1D021C37
:105710001A70BB1D0A1C1A703A68BB1D1978FB1D54
:105720001B785BB21800034B9847C046BD4602B0D9
:1057300080BDC04669FF0100B0B586B004AF786097
:1057400039603B68FF2213401C003B681B0A1A00AB
:10575000FF2313403A68120C1100FF220A403968F7
:10576000090E0D0078680949029501920093230003
:1057700002000120064CA0473A687B68110018001F
:10578000044B9847C046BD4602B0B0BD4865020014
:10579000F5D00000CD00020090B587B002AF020046
:1057A0003960FB1D1A70FB1D1B782C2B02D0322B8D
:1057B0003DD06FE03B68FB60FB681B78012B07D195
:1057C000364B19000120364B9847364B98475EE020
:1057D000FB681B78002B5AD1334B19000120304B4A
:1057E00098470220314B98470820314B9847031EB9
:1057F00006D0304B1800304B984708202B4B984769
:1058000004202B4B9847031E02D00420274B9847B7
:105810002A4B012118002A4B98472A4A2A48FF237D
:105820000093130002221221284CA0472FE03B686E
:10583000BB60BB681B781800BB6801331B781C0079
:10584000BB6802331B781A00BB6803331B782049FE
:1058500001930092230002000120114CA047022076
:105860001C4B98471C4B1B78012B02D11B4B9847B4
:105870000FE01B4A114B110018001A4B9847031EEA
:1058800007D0194B19000120054B984701E0C0468D
:1058900000E0C046C046BD4605B090BD7865020038
:1058A000F5D000003917010098650200A54F0000EF
:1058B000015000008C08002005D60100B808002027
:1058C00015EC0100BC650200CC6502006512010008
:1058D000E0650200D94F000058060020295300005F
:1058E000FC610200E1EA01000866020090B583B0A5
:1058F00000AF294B9847294B19000120284B9847A6
:10590000FC1D0020274B984703002370FB1D1B78CC
:10591000012B10D1244B19000120214B9847234B18
:10592000190001201E4B9847C0460020204B984785
:105930000300022BF9D1FB1D1B78002BE0D11D4B7E
:1059400019000120164B98478C239A001A4B00210E
:1059500018001A4B9847BC1D174B19000020184B14
:10596000984703002370BB1D1B780B2B07D1BB1D71
:105970001A78144B19000120094B984708E0124B84
:1059800019000120064B98470120104B9847C0464C
:10599000BD4603B090BDC0460DDF00002C6602007E
:1059A000F5D00000E9E30000646602008C660200A6
:1059B0005DDF0000C06602005C060020B747020001
:1059C000ADCB0100E466020014670200D94F00006D
:1059D00080B582B000AF3B1D1800084B98473A1DB8
:1059E000074B11001800074B9847054B1800064B52
:1059F0009847C046BD4602B080BDC046FD160200B5
:105A000030450020211702000D18020080B588B033
:105A100000AF3B001800124B98473B0080229200D9
:105A20001A613B000F4A5A603A000F4B11001800F0
:105A30000E4B98470300FB61FB69002B06DAFA69FD
:105A40000B4B190001200B4B9847FEE70A4A064B07
:105A500011001800094B9847C046BD4608B080BDEC
:105A600091FD01003045002088450020DDFD01004A
:105A700038670200F5D00000BD550000C9FE0100E6
:105A800080B582B000AF3A60FB1D021C1A70BB1DCE
:105A90000A1C1A703A68BB1D1978FB1D1B785BB293
:105AA0001800034B9847C046BD4602B080BDC046B3
:105AB00089EA010080B582B000AF786039603A6849
:105AC0007B6811001800034B9847C046BD4602B0E2
:105AD00080BDC046BDEA010090B589B002AF7860D4
